:020000040000FA
:10000000012883160F308500133086008312860185
:1000100085010A30A4000330A6000F30A80001308B
:10002000A7008312203089000530880083168801DC
:10003000081555308900AA308900881408087020F6
:1000400053202A207020252020288312061E642891
:10005000061508008312861C2B287A20061C4328CC
:10006000312883120508A50025184028A518402826
:10007000A50EA515A5162508831286007A2008006E
:1000800064202B28080083120508A50025184028A5
:10009000A5185028A50EA511A5162508860008004C
:1000A00064202B2808008312861C54287A2083128F
:1000B00020308900831608148312080805020319EA
:1000C0000800A10B53286328831206157A20831297
:1000D00006117A20A60B64280330A6000800080049
:1000E00000000D30A300FA30A200A20B7528A30B6C
:1000F000752808007020A40B7A280A30A400080094
:100100007A20A80B80280F30A8000F30A800080024
:040110000034003483
:00000001FF
